:03000000020006F5
:100003000200ED758160D2AFD2A87590FF75A00094
:10001300780A790074002094FDD2A320900528F972
:100023001200C020910509E91200C020920598F939
:100033001200C020930519E91200C02095DDC2A368
:10004300D2A4740020900528FA1200C02091050A5A
:10005300EA1200C020920598FA1200C02093051AF4
:10006300EA1200C02096DDC2A4D2A5D2A71200AE28
:10007300C2A7E975F00A84C5F0759800C2AC900078
:10008300E393C299F5991200BBE5F093C299F599F0
:100093001200AE2097FDEA99B40007D2A71200AE72
:1000A300C2A709B93DCC79000200757D0A7EC87FDD
:1000B300FADFFEDEFADDF6227B01DBFE22FC75F0C1
:1000C3000A84C5F0759800C2AC9000E393C299F519
:1000D300991200BBE5F093C299F5991200AEEC2298
:1000E300FC60DAF266B6BEE0FEF6C0E030B4FD2096
:0500F300B4FDD0E03275
:00000001FF
